:100000000C942A000C9449000C944F000C94470067
:100010000C9447000C9447000C9447000C94470044
:100020000C9447000C9447000C94E7040C94470090
:100030000C9447000C9447000C9447000C94470024
:100040000C9447000C9447000C9447000C94470014
:100050000C94470011241FBECFE5D8E0DEBFCDBF12
:1000600010E0A0E6B0E0E2E9FBE002C005900D92EE
:10007000AA3FB107D9F721E0AAEFB0E001C01D9275
:10008000A330B207E1F70E9491050C94C7050C94C8
:1000900000008F9381E0809300018F9118958F93DA
:1000A00081E08093FF008F9118950E94E6010E94E5
:1000B00095030E947E0360E082E00E94A2010E94FC
:1000C00007050E94F904789463E080E00E94AC0484
:1000D00062E081E00E94AC0480E090E00E94A50410
:1000E0008F3F09F480E08093FA0060E080E00E9496
:1000F000480380E690E00E94A10260E081E00E9457
:10010000480380E790E00E94A1022FEF8EE994E27D
:10011000215080409040E1F700C000000E94680339
:1001200087E790E00C941B05EF92FF920F931F93CB
:10013000CF93DF930E941705811116C080910001B3
:100140008111AEC00E9402052091FD003091FE0099
:10015000821B930B883E9340D0F4DF91CF911F9187
:100160000F91FF90EF9008950E941305843409F4D5
:10017000E5C0833419F71092FA0060E080E090E067
:100180000E949D048FE890E00E941B05D7CF0E943B
:1001900002058093FD009093FE000E949C03C82FEF
:1001A0000E948503D82F60E080E00E94480387EB1F
:1001B00090E00E94A1028C2F90E00E94C5028AEB81
:1001C00090E00E94A1028D2F90E00E94C50280EC79
:1001D00090E00E94A102C83208F050C0D03108F46B
:1001E0004DC01092FF0060E082E00E94B80160E024
:1001F00081E00E94480387EE90E00E94A102809176
:10020000FA0090E00E94C5028CEE90E00E94A102EC
:100210000E9402052091FB003091FC00821B930B91
:100220008838934108F499CF0E9402058093FB001F
:100230009093FC008091FA00883708F08ECF90E010
:1002400002966C2F880F991F0E949D048091FA00DE
:1002500090E0880F991F6D2F05960E949D04609174
:10026000FA006F5F6093FA0080E090E0DF91CF9139
:100270001F910F91FF90EF900C949D048091FF00CF
:1002800060E0811509F44EC082E00E94B80160E090
:1002900081E00E94480385EC90E00E94A102B8CF63
:1002A000109200018DE990E00E941B058091FA00F8
:1002B000811551F104E010E0C0E0D0E0C8010E94D7
:1002C000A504E82EC80101960E94A504F82ECE01CF
:1002D0000E9427058CE20E940F058E2D90E00E945F
:1002E00027058CE20E940F058F2D90E00E942705C4
:1002F0008AE990E00E941B0521960E5F1F4F8091B6
:10030000FA00C817D105D0F280EB90E00E941B05DF
:100310008091FA0090E00E9427058AE990E00E940F
:100320001B0510CF82E00E94B50160E081E00E94D1
:10033000480386ED90E00E94A1026ACF81E080939D
:100340000001FCCECF93DF9300D0CDB7DEB7898319
:100350006A8341E00E94B70340E06A8189810F907F
:100360000F90DF91CF910C94FB0341E00C94FB03C1
:1003700040E00C94FB030F931F93CF93DF93082F60
:1003800010E0C0E0D0E0A8010C2E02C055954795C2
:100390000A94E2F741706C2F6C5F81E00E94FB03CE
:1003A0002196C430D10579F741E061E081E00E94F7
:1003B000FB0385E08A95F1F7000040E061E081E011
:1003C000DF91CF911F910F910C94FB03CF9341E0EC
:1003D00060E081E00E94B70341E061E081E00E94BB
:1003E000B703C4E041E06C2F81E00E94B703CF5F08
:1003F000C830C1F72FE788E391E02150804090405A
:10040000E1F700C0000083E00E94BB018FE097E2AB
:100410000197F1F700C0000083E00E94BB018BE26E
:1004200091E00197F1F700C0000083E00E94BB015A
:100430008BE291E00197F1F700C0000082E00E949A
:10044000BB018BE291E00197F1F700C0000040E0B2
:1004500060E081E00E94FB0382E00E94BB0188E231
:100460000E94BB0195E89A95F1F7000040E060E03A
:1004700081E00E94FB0380E00E94BB018CE00E94AF
:10048000BB0125E82A95F1F7000040E060E081E03B
:100490000E94FB0380E00E94BB0186E00E94BB013A
:1004A00085E88A95F1F7000040E060E081E00E9475
:1004B000FB0380E00E94BB0181E00E94BB0195E844
:1004C0009A95F1F700008FE99FE00197F1F700C0DE
:1004D0000000CF910895CF93DF930F92CDB7DEB791
:1004E000898340E060E081E00E94FB03898182957E
:1004F0008F700E94BB0189810E94BB0185E88A95AB
:10050000F1F700000F90DF91CF910895CF93DF9323
:100510000F92CDB7DEB7898341E060E081E00E94B1
:10052000FB03898182958F700E94BB0189810E94A3
:10053000BB0185E88A95F1F700000F90DF91CF911C
:1005400008950F931F93CF93FC01C081C115C9F08B
:100550008C010F5F1F4F41E060E081E00E94FB03D0
:100560008C2F82958F700E94BB018C2F0E94BB0143
:10057000F5E8FA95F1F70000F801C1918F01C1117A
:10058000EACFCF911F910F910895DF92EF92FF92E2
:100590000F931F93CF93DF9300D000D00F92CDB76E
:1005A000DEB79C01892B09F463C040E08E010F5F28
:1005B0001F4F6DECE62E6DEC7CEC922F92959F70A8
:1005C000822F8F70890F932F9F70890F932F929591
:1005D0009F70890F8E9D912D1124592F56955695F8
:1005E0009C77950F891BD901A81BB109A69FF00123
:1005F000A79FF00DB69FF00D1124E0FD8B5FD80191
:10060000A40FB11D805D8C93C9019F01369527957C
:10061000542F4F5F0A9788F64115E9F07801EFEF04
:10062000EE1AFE0AE50EF11CF701D2907F0141E0BF
:1006300060E081E00E94FB038D2D82958F700E9407
:10064000BB018D2D0E94BB01F5E8FA95F1F7000082
:100650000E151F0549F70F900F900F900F900F90F8
:10066000DF91CF911F910F91FF90EF90DF90089550
:1006700041E060E081E00E94FB0383E00E94BB0157
:1006800080E30E94BB0185E88A95F1F70000E3CF83
:10069000CF93DF930F92CDB7DEB7811117C06058AB
:1006A000698340E060E081E00E94FB0389818295DC
:1006B0008F700E94BB0189810E94BB0185E88A95E9
:1006C000F1F700000F90DF91CF9108956054E8CFCB
:1006D00040E060E081E00E94FB0380E00E94BB01FB
:1006E00081E00E94BB0185E88A95F1F700008FE95F
:1006F0009FE00197F1F700C00000089540E061E03D
:1007000080E00E94B7030C94A40381E00E94A90337
:100710009C01A4E6B0E00E9496052FEF33E040E094
:1007200050E00E94A505822F089540E060E080E03F
:100730000E94B7030C94A40380E00E94A90396953D
:10074000879596958795089580E487B987E886B957
:10075000089597B1907E97B997B18F71982B97B9FB
:10076000369A3699FECF84B125B1922F0895823002
:10077000E9F070F4811531F181E001C0880F6A95CC
:10078000EAF797B3413059F18095892387BB0895E3
:10079000833021F581E001C0880F6A95EAF791B3B3
:1007A000413001F18095892381BB089581E001C02A
:1007B000880F6A95EAF794B34130D1F08095892388
:1007C00084BB089581E001C0880F6A95EAF79AB367
:1007D000413059F0809589238ABB08950895892B6B
:1007E00087BB0895892B81BB0895892B8ABB089507
:1007F000892B84BB08958230E9F070F4811531F1C2
:1008000081E001C0880F6A95EAF798B3413059F149
:100810008095892388BB0895833021F581E001C04C
:10082000880F6A95EAF792B3413001F180958923E8
:1008300082BB089581E001C0880F6A95EAF795B3FD
:100840004130D1F08095892385BB089581E001C0B6
:10085000880F6A95EAF79BB3413059F08095892358
:100860008BBB08950895892B88BB0895892B82BB83
:100870000895892B8BBB0895892B85BB0895823001
:10088000B9F058F48115E9F086B390E002C095956F
:1008900087956A95E2F7817008958330D9F480B323
:1008A00090E002C0959587956A95E2F7817008956A
:1008B00083B390E002C0959587956A95E2F78170C1
:1008C000089589B390E002C0959587956A95E2F7FF
:1008D0008170089580E00895823049F020F48115F8
:1008E00041F067BB0895833031F461BB089564BB68
:1008F00008956ABB08950895823049F020F4811567
:1009000041F068BB0895833031F462BB089565BB44
:1009100008956BBB08950895823049F020F4811545
:1009200041F086B30895833031F480B3089583B3E2
:10093000089589B3089580E00895E199FECF9FBBA3
:100940008EBB6DBBE29AE19A0895E199FECF9FBB01
:100950008EBBE09A8DB308958130C1F0823061F092
:10096000811108C085B763708C7F682B65BF8BB71A
:1009700080648BBF7894089584B7633099F08F7B3F
:1009800084BF8BB780628BBF7894089585B7660F5C
:10099000660F6C70837F682B65BF8BB780688BBFD9
:1009A00078940895806484BFECCF813061F0823008
:1009B00031F0811107C08BB78F7B8BBF08958BB748
:1009C0008F7D8BBF08958BB78F778BBF08958F93E3
:1009D0008FB78F939F9380910101909102010196AF
:1009E00090930201809301019F918F918FBF8F910E
:1009F00018958BE083BF8CE78CBF12BE89B78260ED
:100A000089BF08958091010190910201089510BC61
:100A100083E389B988E18AB986E880BD08955D9B42
:100A2000FECF8CB908955F9BFECF8CB108958827C7
:100A30005F9983950895FC019081911539F0319665
:100A40005D9BFECF9CB991919111FACF0895CF9201
:100A5000DF92EF92FF920F931F93CF93DF9300D01B
:100A600000D00F92CDB7DEB79C01892B09F454C09A
:100A700040E0BE016F5F7F4FEDECEE2EFCECDF2E11
:100A8000CE2C922F92959F70822F8F70890F932F6B
:100A90009F70890F932F92959F70890F8E9D912D36
:100AA0001124592F569556959C77950F891B8901CE
:100AB000081B11090C9DD0010D9DB00D1C9DB00DA2
:100AC0001124A0FD8B5F8B01040F111D805DF801C7
:100AD0008083C9019D0136952795542F4F5F0A9752
:100AE00080F6411559F0FB013196E50FF11D829119
:100AF0005D9BFECF8CB96E177F07C9F70F900F90E3
:100B00000F900F900F90DF91CF911F910F91FF9059
:100B1000EF90DF90CF9008955D9BFECF80E38CB97E
:100B2000EDCF0E9455000E949400FDCFA29FB0011E
:100B3000B39FC001A39F700D811D1124911DB29F11
:100B4000700D811D1124911D0895A1E21A2EAA1B7A
:100B5000BB1BFD010DC0AA1FBB1FEE1FFF1FA2176D
:100B6000B307E407F50720F0A21BB30BE40BF50B6A
:100B7000661F771F881F991F1A9469F760957095F3
:100B8000809590959B01AC01BD01CF010895F8942B
:020B9000FFCF95
:100B9200576561746865722053746174696F6E0081
:100BA2005465616D20330057656174686572205326
:100BB200746174696F6E2052656164790D0A006C0C
:100BC2006F6720636C65617265640D0A00696E640B
:100BD20065782C74656D702C6C696768740D0A00F9
:100BE200746F74616C2C00543A004320204C3A001C
:100BF2002520202000414C41524D21204D75746525
:100C0200642020202000414C41524D2120202020F0
:100C1200202020202020004C6F673A00207265635C
:0A0C22007320202020202020000075
:00000001FF
