:100000000C942A000C9449000C944F000C94470067
:100010000C9447000C9447000C9447000C94470044
:100020000C9447000C9447000C940A050C9447006C
:100030000C9447000C9447000C9447000C94470024
:100040000C9447000C9447000C9447000C94470014
:100050000C94470011241FBECFE5D8E0DEBFCDBF12
:1000600011E0A0E6B0E0EEEDFBE002C005900D92DD
:10007000AA30B107D9F721E0AAE0B1E001C01D9292
:10008000A331B207E1F70E94B7050C94ED050C947B
:1000900000008F9381E0809310018F9118958F93CA
:1000A00081E080930F018F9118950E94FC010E94BE
:1000B000AB030E94940360E082E00E94B8010E94BA
:1000C0002D050E941C0563E080E00E94CF0462E0E1
:1000D00081E00E94CF04789480E090E00E94C80400
:1000E0008F3F09F480E080930A0160E080E00E9485
:1000F0005E0380E690E00E94B70260E081E00E942B
:100100005E0380E790E00E94B7022FEF8EE994E251
:10011000215080409040E1F700C000000E947E0323
:1001200087E790E00C944105EF92FF920F931F93A5
:10013000CF93DF930E943D05811116C0809110017D
:100140008111C4C00E94250520910D0130910E013E
:10015000821B930B883E9340D0F4DF91CF911F9187
:100160000F91FF90EF9008950E943905843409F4AF
:10017000FBC0833419F710920A0160E080E090E040
:100180000E94BD048FE890E00E944105D7CF0E94F5
:10019000250580930D0190930E010E94B203C82F94
:1001A0000E949B03D82F87EB90E00E94410580E0DE
:1001B0000E94C9030E944D058FEB90E00E9441050B
:1001C00081E00E94C9030E944D058AE990E00E94E7
:1001D000410560E080E00E945E0388EC90E00E94B0
:1001E000B7028C2F90E00E94DB028BEC90E00E9423
:1001F000B7028D2F90E00E94DB0281ED90E00E941B
:10020000B702C83208F050C0D03108F44DC0109287
:100210000F0160E082E00E94CE0160E081E00E9478
:100220005E0388EF90E00E94B70280910A0190E09F
:100230000E94DB028DEF90E00E94B7020E9425052C
:1002400020910B0130910C01821B930B8838934154
:1002500008F483CF0E94250580930B0190930C0135
:1002600080910A01883708F078CF90E002966C2FD1
:10027000880F991F0E94BD0480910A0190E0880FA9
:10028000991F6D2F05960E94BD0460910A016F5F52
:1002900060930A0180E090E0DF91CF911F910F9170
:1002A000FF90EF900C94BD0480910F0160E08115E8
:1002B00009F44EC082E00E94CE0160E081E00E941D
:1002C0005E0386ED90E00E94B702B8CF1092100155
:1002D0008DE990E00E94410580910A01811551F15C
:1002E00004E010E0C0E0D0E0C8010E94C804E82E9D
:1002F000C80101960E94C804F82ECE010E944D0547
:100300008CE20E9435058E2D90E00E944D058CE216
:100310000E9435058F2D90E00E944D058AE990E0FE
:100320000E94410521960E5F1F4F80910A01C81758
:10033000D105D0F280EB90E00E94410580910A0146
:1003400090E00E944D058AE990E00E944105FACEB6
:1003500082E00E94CB0160E081E00E945E0387EEB4
:1003600090E00E94B7026ACF81E080931001E6CE50
:10037000CF93DF9300D0CDB7DEB789836A8341E0A6
:100380000E94D70340E06A8189810F900F90DF912E
:10039000CF910C941B0441E00C941B0440E00C949E
:1003A0001B040F931F93CF93DF93082F10E0C0E03F
:1003B000D0E0A8010C2E02C0559547950A94E2F7AB
:1003C00041706C2F6C5F81E00E941B042196C43049
:1003D000D10579F741E061E081E00E941B0485E0EE
:1003E0008A95F1F7000040E061E081E0DF91CF9174
:1003F0001F910F910C941B04CF9341E060E081E0CA
:100400000E94D70341E061E081E00E94D703C4E08D
:1004100041E06C2F81E00E94D703CF5FC830C1F765
:100420002FE788E391E0215080409040E1F700C041
:10043000000083E00E94D1018FE097E20197F1F77D
:1004400000C0000083E00E94D1018BE291E001979F
:10045000F1F700C0000083E00E94D1018BE291E03F
:100460000197F1F700C0000082E00E94D1018BE209
:1004700091E00197F1F700C0000040E060E081E00A
:100480000E941B0482E00E94D10188E20E94D101F7
:1004900095E89A95F1F7000040E060E081E00E9465
:1004A0001B0480E00E94D1018CE00E94D10125E86C
:1004B0002A95F1F7000040E060E081E00E941B0413
:1004C00080E00E94D10186E00E94D10185E88A95F2
:1004D000F1F7000040E060E081E00E941B0480E052
:1004E0000E94D10181E00E94D10195E89A95F1F72F
:1004F00000008FE99FE00197F1F700C00000CF9165
:100500000895CF93DF930F92CDB7DEB7898340E094
:1005100060E081E00E941B04898182958F700E94B7
:10052000D10189810E94D10185E88A95F1F7000007
:100530000F90DF91CF910895CF93DF930F92CDB7B6
:10054000DEB7898341E060E081E00E941B0489817D
:1005500082958F700E94D10189810E94D10185E826
:100560008A95F1F700000F90DF91CF9108950F93D6
:100570001F93CF93FC01C081C115C9F08C010F5F9F
:100580001F4F41E060E081E00E941B048C2F8295A8
:100590008F700E94D1018C2F0E94D101F5E8FA954D
:1005A000F1F70000F801C1918F01C111EACFCF919D
:1005B0001F910F910895DF92EF92FF920F931F9377
:1005C000CF93DF9300D000D00F92CDB7DEB79C0160
:1005D000892B09F463C040E08E010F5F1F4F6DEC63
:1005E000E62E6DEC7CEC922F92959F70822F8F708F
:1005F000890F932F9F70890F932F92959F70890F6A
:100600008E9D912D1124592F569556959C77950FB7
:10061000891BD901A81BB109A69FF001A79FF00D66
:10062000B69FF00D1124E0FD8B5FD801A40FB11D22
:10063000805D8C93C9019F0136952795542F4F5F9C
:100640000A9788F64115E9F07801EFEFEE1AFE0AF5
:10065000E50EF11CF701D2907F0141E060E081E0FE
:100660000E941B048D2D82958F700E94D1018D2DCB
:100670000E94D101F5E8FA95F1F700000E151F056B
:1006800049F70F900F900F900F900F90DF91CF913F
:100690001F910F91FF90EF90DF90089541E060E08F
:1006A00081E00E941B0483E00E94D10180E30E944C
:1006B000D10185E88A95F1F70000E3CFCF93DF936E
:1006C0000F92CDB7DEB7811117C06058698340E043
:1006D00060E081E00E941B04898182958F700E94F6
:1006E000D10189810E94D10185E88A95F1F7000046
:1006F0000F90DF91CF9108956054E8CF40E060E023
:1007000081E00E941B0480E00E94D10181E00E94F0
:10071000D10185E88A95F1F700008FE99FE0019704
:10072000F1F700C00000089540E061E080E00E9421
:10073000D7030C94C40381E00E94C9039C01A4E682
:10074000B0E00E94BC052FEF33E040E050E00E9493
:10075000CB05822F089540E060E080E00E94D7033F
:100760000C94C40380E00E94C9039C01A4EFB1E093
:100770000E94BC05A92F982F872FA695979587953E
:10078000A69597958795089580E487B987E886B9F7
:10079000089597B1907E97B997B18F71982B97B9BB
:1007A000369A3699FECF84B125B1922F08958230C2
:1007B000E9F070F4811531F181E001C0880F6A958C
:1007C000EAF797B3413059F18095892387BB0895A3
:1007D000833021F581E001C0880F6A95EAF791B373
:1007E000413001F18095892381BB089581E001C0EA
:1007F000880F6A95EAF794B34130D1F08095892348
:1008000084BB089581E001C0880F6A95EAF79AB326
:10081000413059F0809589238ABB08950895892B2A
:1008200087BB0895892B81BB0895892B8ABB0895C6
:10083000892B84BB08958230E9F070F4811531F181
:1008400081E001C0880F6A95EAF798B3413059F109
:100850008095892388BB0895833021F581E001C00C
:10086000880F6A95EAF792B3413001F180958923A8
:1008700082BB089581E001C0880F6A95EAF795B3BD
:100880004130D1F08095892385BB089581E001C076
:10089000880F6A95EAF79BB3413059F08095892318
:1008A0008BBB08950895892B88BB0895892B82BB43
:1008B0000895892B8BBB0895892B85BB08958230C1
:1008C000B9F058F48115E9F086B390E002C095952F
:1008D00087956A95E2F7817008958330D9F480B3E3
:1008E00090E002C0959587956A95E2F7817008952A
:1008F00083B390E002C0959587956A95E2F7817081
:10090000089589B390E002C0959587956A95E2F7BE
:100910008170089580E00895823049F020F48115B7
:1009200041F067BB0895833031F461BB089564BB27
:1009300008956ABB08950895823049F020F4811526
:1009400041F068BB0895833031F462BB089565BB04
:1009500008956BBB08950895823049F020F4811505
:1009600041F086B30895833031F480B3089583B3A2
:10097000089589B3089580E00895E199FECF9FBB63
:100980008EBB6DBB8FB7F894E29AE19A8FBF089542
:10099000E199FECF9FBB8EBBE09A8DB30895813065
:1009A000C1F0823061F0811108C085B763708C7F1F
:1009B000682B65BF8BB780648BBF7894089584B72C
:1009C000633099F08F7B84BF8BB780628BBF789444
:1009D000089585B7660F660F6C70837F682B65BFBF
:1009E0008BB780688BBF78940895806484BFECCF08
:1009F000813061F0823031F0811107C08BB78F7B7D
:100A00008BBF08958BB78F7D8BBF08958BB78F7782
:100A10008BBF08958F938FB78F939F938091110110
:100A200090911201019690931201809311019F9170
:100A30008F918FBF8F9118958BE083BF8CE78CBF10
:100A400012BE89B7826089BF08952FB7F89480914C
:100A50001101909112012FBF089510BC83E389B951
:100A600088E18AB986E880BD08955D9BFECF8CB988
:100A700008955F9BFECF8CB1089588275F99839579
:100A80000895FC019081911539F031965D9BFECF60
:100A90009CB991919111FACF0895CF92DF92EF9284
:100AA000FF920F931F93CF93DF9300D000D00F924C
:100AB000CDB7DEB79C01892B09F454C040E0BE01DC
:100AC0006F5F7F4FEDECEE2EFCECDF2ECE2C922FE5
:100AD00092959F70822F8F70890F932F9F70890F2F
:100AE000932F92959F70890F8E9D912D1124592FD0
:100AF000569556959C77950F891B8901081B1109FE
:100B00000C9DD0010D9DB00D1C9DB00D1124A0FDBC
:100B10008B5F8B01040F111D805DF8018083C9017B
:100B20009D0136952795542F4F5F0A9780F6411502
:100B300059F0FB013196E50FF11D82915D9BFECFCF
:100B40008CB96E177F07C9F70F900F900F900F9019
:100B50000F90DF91CF911F910F91FF90EF90DF9059
:100B6000CF9008955D9BFECF80E38CB9EDCF0E94BE
:100B700055000E949400FDCFA29FB001B39FC00119
:100B8000A39F700D811D1124911DB29F700D811DB9
:100B90001124911D0895A1E21A2EAA1BBB1BFD0171
:100BA0000DC0AA1FBB1FEE1FFF1FA217B307E4074C
:100BB000F50720F0A21BB30BE40BF50B661F771FA4
:100BC000881F991F1A9469F7609570958095909584
:0E0BD0009B01AC01BD01CF010895F894FFCF49
:100BDE00576561746865722053746174696F6E0035
:100BEE005465616D203300576561746865722053DA
:100BFE00746174696F6E2052656164790D0A006CC0
:100C0E006F6720636C65617265640D0A00696E64BE
:100C1E0065782C74656D702C6C696768740D0A00AC
:100C2E00746F74616C2C007261772041303D00202E
:100C3E007261772041313D00543A004320204C3AF6
:100C4E00002520202000414C41524D21204D75742D
:100C5E0065642020202000414C41524D212020204F
:100C6E0020202020202020004C6F673A0020726543
:0A0C7E0063732020202020202000B6
:00000001FF
